{
  "abi": [
    {
      "inputs": [],
      "stateMutability": "nonpayable",
      "type": "constructor"
    },
    {
      "inputs": [],
      "name": "get_verified",
      "outputs": [],
      "stateMutability": "nonpayable",
      "type": "function"
    },
    {
      "inputs": [
        {
          "internalType": "address",
          "name": "addr",
          "type": "address"
        }
      ],
      "name": "verify_address",
      "outputs": [
        {
          "internalType": "bool",
          "name": "",
          "type": "bool"
        }
      ],
      "stateMutability": "nonpayable",
      "type": "function"
    },
    {
      "inputs": [
        {
          "internalType": "address",
          "name": "addr_to_verify",
          "type": "address"
        },
        {
          "internalType": "uint256",
          "name": "tokenID",
          "type": "uint256"
        }
      ],
      "name": "verify_owner",
      "outputs": [
        {
          "internalType": "bool",
          "name": "",
          "type": "bool"
        }
      ],
      "stateMutability": "view",
      "type": "function"
    }
  ],
  "bytecode": "608060405234801561001057600080fd5b5060405161001d9061005f565b604051809103906000f080158015610039573d6000803e3d6000fd5b50600080546001600160a01b0319166001600160a01b039290921691909117905561006c565b612318806103db83390190565b6103608061007b6000396000f3fe608060405234801561001057600080fd5b50600436106100415760003560e01c80632b7a8e1214610046578063a3ac0f7d14610086578063e052bfba14610090575b600080fd5b6100726004803603604081101561005c57600080fd5b506001600160a01b0381351690602001356100b6565b604080519115158252519081900360200190f35b61008e610141565b005b610072600480360360208110156100a657600080fd5b50356001600160a01b03166101bd565b600080546040805163f5af256b60e01b81526004810185905290516001600160a01b0380871693169163f5af256b916024808301926020929190829003018186803b15801561010457600080fd5b505afa158015610118573d6000803e3d6000fd5b505050506040513d602081101561012e57600080fd5b50516001600160a01b0316149392505050565b60008054604080516354ba0f2760e01b815233600482015290516001600160a01b03909216926354ba0f27926024808401936020939083900390910190829087803b15801561018f57600080fd5b505af11580156101a3573d6000803e3d6000fd5b505050506040513d60208110156101b957600080fd5b5050565b60008054604080516302c62fa160e41b81526001600160a01b03858116600483015291516060939290921691632c62fa1091602480820192879290919082900301818387803b15801561020f57600080fd5b505af1158015610223573d6000803e3d6000fd5b505050506040513d6000823e601f3d908101601f19168201604052602081101561024c57600080fd5b810190808051604051939291908464010000000082111561026c57600080fd5b90830190602082018581111561028157600080fd5b825186602082028301116401000000008211171561029e57600080fd5b82525081516020918201928201910280838360005b838110156102cb5781810151838201526020016102b3565b50505050905001604052505050905060008090505b815181101561031e57610306848383815181106102f957fe5b60200260200101516100b6565b1561031657600192505050610325565b6001016102e0565b5060009150505b91905056fea264697066735822122095887994d593768bb915e4d23ac6f4a00581348f5c6d3c5bf58e4ebd5d4de28f64736f6c6343000606003360806040523480156200001157600080fd5b5060408051808201825260088152674964656e7469747960c01b6020808301919091528251808401909352600383526211125160ea1b9083015290620000676301ffc9a760e01b6001600160e01b036200015516565b81516200007c906006906020850190620001df565b50805162000092906007906020840190620001df565b50620000ae6380ac58cd60e01b6001600160e01b036200015516565b620000c9635b5e139f60e01b6001600160e01b036200015516565b620000e463780e9d6360e01b6001600160e01b036200015516565b5060009050620000fc6001600160e01b03620001da16565b600a80546001600160a01b0319166001600160a01b038316908117909155604051919250906000907f8be0079c531659141344cd1fd0a4f28419497f9722a3daafe3b4186f6b6457e0908290a3506000600b5562000281565b6001600160e01b03198082161415620001b5576040805162461bcd60e51b815260206004820152601c60248201527f4552433136353a20696e76616c696420696e7465726661636520696400000000604482015290519081900360640190fd5b6001600160e01b0319166000908152602081905260409020805460ff19166001179055565b335b90565b828054600181600116156101000203166002900490600052602060002090601f016020900481019282601f106200022257805160ff191683800117855562000252565b8280016001018555821562000252579182015b828111156200025257825182559160200191906001019062000235565b506200026092915062000264565b5090565b620001dc91905b808211156200026057600081556001016200026b565b61208780620002916000396000f3fe608060405234801561001057600080fd5b506004361061014d5760003560e01c80636352211e116100c3578063a22cb4651161007c578063a22cb4651461043f578063b88d4fde1461046d578063c87b56dd14610533578063e985e9c514610550578063f2fde38b1461057e578063f5af256b146105a45761014d565b80636352211e146103dc5780636c0360eb146103f957806370a0823114610401578063715018a6146104275780638da5cb5b1461042f57806395d89b41146104375761014d565b806323b872dd1161011557806323b872dd1461028b5780632c62fa10146102c15780632f745c591461033757806342842e0e146103635780634f6ccce71461039957806354ba0f27146103b65761014d565b806301ffc9a71461015257806306fdde031461018d578063081812fc1461020a578063095ea7b31461024357806318160ddd14610271575b600080fd5b6101796004803603602081101561016857600080fd5b50356001600160e01b0319166105c1565b604080519115158252519081900360200190f35b6101956105e4565b6040805160208082528351818301528351919283929083019185019080838360005b838110156101cf5781810151838201526020016101b7565b50505050905090810190601f1680156101fc5780820380516001836020036101000a031916815260200191505b509250505060405180910390f35b6102276004803603602081101561022057600080fd5b503561067a565b604080516001600160a01b039092168252519081900360200190f35b61026f6004803603604081101561025957600080fd5b506001600160a01b0381351690602001356106dc565b005b6102796107b7565b60408051918252519081900360200190f35b61026f600480360360608110156102a157600080fd5b506001600160a01b038135811691602081013590911690604001356107c8565b6102e7600480360360208110156102d757600080fd5b50356001600160a01b031661081f565b60408051602080825283518183015283519192839290830191858101910280838360005b8381101561032357818101518382015260200161030b565b505050509050019250505060405180910390f35b6102796004803603604081101561034d57600080fd5b506001600160a01b038135169060200135610923565b61026f6004803603606081101561037957600080fd5b506001600160a01b03813581169160208101359091169060400135610954565b610279600480360360208110156103af57600080fd5b503561096f565b610279600480360360208110156103cc57600080fd5b50356001600160a01b031661098b565b610227600480360360208110156103f257600080fd5b5035610a3b565b610195610a69565b6102796004803603602081101561041757600080fd5b50356001600160a01b0316610aca565b61026f610b32565b610227610bf0565b610195610bff565b61026f6004803603604081101561045557600080fd5b506001600160a01b0381351690602001351515610c60565b61026f6004803603608081101561048357600080fd5b6001600160a01b038235811692602081013590911691604082013591908101906080810160608201356401000000008111156104be57600080fd5b8201836020820111156104d057600080fd5b803590602001918460018302840111640100000000831117156104f257600080fd5b91908080601f016020809104026020016040519081016040528093929190818152602001838380828437600092019190915250929550610d65945050505050565b6101956004803603602081101561054957600080fd5b5035610dc3565b6101796004803603604081101561056657600080fd5b506001600160a01b0381358116916020013516611046565b61026f6004803603602081101561059457600080fd5b50356001600160a01b0316611074565b610227600480360360208110156105ba57600080fd5b5035611189565b6001600160e01b0319811660009081526020819052604090205460ff165b919050565b60068054604080516020601f60026000196101006001881615020190951694909404938401819004810282018101909252828152606093909290918301828280156106705780601f1061064557610100808354040283529160200191610670565b820191906000526020600020905b81548152906001019060200180831161065357829003601f168201915b5050505050905090565b6000610685826111a4565b6106c05760405162461bcd60e51b815260040180806020018281038252602c815260200180611f7c602c913960400191505060405180910390fd5b506000908152600460205260409020546001600160a01b031690565b60006106e782610a3b565b9050806001600160a01b0316836001600160a01b0316141561073a5760405162461bcd60e51b81526004018080602001828103825260218152602001806120006021913960400191505060405180910390fd5b806001600160a01b031661074c6111b7565b6001600160a01b0316148061076d575061076d816107686111b7565b611046565b6107a85760405162461bcd60e51b8152600401808060200182810382526038815260200180611ecf6038913960400191505060405180910390fd5b6107b283836111bb565b505050565b60006107c36002611229565b905090565b6107d96107d36111b7565b82611234565b6108145760405162461bcd60e51b81526004018080602001828103825260318152602001806120216031913960400191505060405180910390fd5b6107b28383836112d8565b600d5460609060005b8181101561085b57600d80548061083b57fe5b600082815260208120820160001990810191909155019055600101610828565b5060005b600b548110156108c957836001600160a01b031661087c82610a3b565b6001600160a01b031614156108c157600d80546001810182556000919091527fd7b6990105719101dabeb77144f2a3385c8033acd3af97e9423a695e81ad1eb5018190555b60010161085f565b50600d80548060200260200160405190810160405280929190818152602001828054801561091657602002820191906000526020600020905b815481526020019060010190808311610902575b5050505050915050919050565b6001600160a01b038216600090815260016020526040812061094b908363ffffffff61143616565b90505b92915050565b6107b283838360405180602001604052806000815250610d65565b60008061098360028463ffffffff61144216565b509392505050565b60006109956111b7565b6001600160a01b03166109a6610bf0565b6001600160a01b031614610a01576040805162461bcd60e51b815260206004820181905260248201527f4f776e61626c653a2063616c6c6572206973206e6f7420746865206f776e6572604482015290519081900360640190fd5b600b805460018101909155610a16838261145e565b6000818152600c6020526040902080546001600160a01b031916331790559050919050565b600061094e82604051806060016040528060298152602001611f31602991396002919063ffffffff61147c16565b60098054604080516020601f60026000196101006001881615020190951694909404938401819004810282018101909252828152606093909290918301828280156106705780601f1061064557610100808354040283529160200191610670565b60006001600160a01b038216610b115760405162461bcd60e51b815260040180806020018281038252602a815260200180611f07602a913960400191505060405180910390fd5b6001600160a01b038216600090815260016020526040902061094e90611229565b610b3a6111b7565b6001600160a01b0316610b4b610bf0565b6001600160a01b031614610ba6576040805162461bcd60e51b815260206004820181905260248201527f4f776e61626c653a2063616c6c6572206973206e6f7420746865206f776e6572604482015290519081900360640190fd5b600a546040516000916001600160a01b0316907f8be0079c531659141344cd1fd0a4f28419497f9722a3daafe3b4186f6b6457e0908390a3600a80546001600160a01b0319169055565b600a546001600160a01b031690565b60078054604080516020601f60026000196101006001881615020190951694909404938401819004810282018101909252828152606093909290918301828280156106705780601f1061064557610100808354040283529160200191610670565b610c686111b7565b6001600160a01b0316826001600160a01b03161415610cce576040805162461bcd60e51b815260206004820152601960248201527f4552433732313a20617070726f766520746f2063616c6c657200000000000000604482015290519081900360640190fd5b8060056000610cdb6111b7565b6001600160a01b03908116825260208083019390935260409182016000908120918716808252919093529120805460ff191692151592909217909155610d1f6111b7565b60408051841515815290516001600160a01b0392909216917f17307eab39ab6107e8899845ad3d59bd9653f200f220920489ca2b5937696c319181900360200190a35050565b610d76610d706111b7565b83611234565b610db15760405162461bcd60e51b81526004018080602001828103825260318152602001806120216031913960400191505060405180910390fd5b610dbd84848484611493565b50505050565b6060610dce826111a4565b610e095760405162461bcd60e51b815260040180806020018281038252602f815260200180611fd1602f913960400191505060405180910390fd5b60008281526008602090815260409182902080548351601f6002600019610100600186161502019093169290920491820184900484028101840190945280845260609392830182828015610e9e5780601f10610e7357610100808354040283529160200191610e9e565b820191906000526020600020905b815481529060010190602001808311610e8157829003601f168201915b505050505090506060610eaf610a69565b9050805160001415610ec3575090506105df565b815115610f845780826040516020018083805190602001908083835b60208310610efe5780518252601f199092019160209182019101610edf565b51815160209384036101000a600019018019909216911617905285519190930192850191508083835b60208310610f465780518252601f199092019160209182019101610f27565b6001836020036101000a03801982511681845116808217855250505050505090500192505050604051602081830303815290604052925050506105df565b80610f8e856114e5565b6040516020018083805190602001908083835b60208310610fc05780518252601f199092019160209182019101610fa1565b51815160209384036101000a600019018019909216911617905285519190930192850191508083835b602083106110085780518252601f199092019160209182019101610fe9565b6001836020036101000a0380198251168184511680821785525050505050509050019250505060405160208183030381529060405292505050919050565b6001600160a01b03918216600090815260056020908152604080832093909416825291909152205460ff1690565b61107c6111b7565b6001600160a01b031661108d610bf0565b6001600160a01b0316146110e8576040805162461bcd60e51b815260206004820181905260248201527f4f776e61626c653a2063616c6c6572206973206e6f7420746865206f776e6572604482015290519081900360640190fd5b6001600160a01b03811661112d5760405162461bcd60e51b8152600401808060200182810382526026815260200180611e596026913960400191505060405180910390fd5b600a546040516001600160a01b038084169216907f8be0079c531659141344cd1fd0a4f28419497f9722a3daafe3b4186f6b6457e090600090a3600a80546001600160a01b0319166001600160a01b0392909216919091179055565b6000908152600c60205260409020546001600160a01b031690565b600061094e60028363ffffffff6115c016565b3390565b600081815260046020526040902080546001600160a01b0319166001600160a01b03841690811790915581906111f082610a3b565b6001600160a01b03167f8c5be1e5ebec7d5bd14f71427d1e84f3dd0314c0f7b2291e5b200ac8c7c3b92560405160405180910390a45050565b600061094e826115cc565b600061123f826111a4565b61127a5760405162461bcd60e51b815260040180806020018281038252602c815260200180611ea3602c913960400191505060405180910390fd5b600061128583610a3b565b9050806001600160a01b0316846001600160a01b031614806112c05750836001600160a01b03166112b58461067a565b6001600160a01b0316145b806112d057506112d08185611046565b949350505050565b826001600160a01b03166112eb82610a3b565b6001600160a01b0316146113305760405162461bcd60e51b8152600401808060200182810382526029815260200180611fa86029913960400191505060405180910390fd5b6001600160a01b0382166113755760405162461bcd60e51b8152600401808060200182810382526024815260200180611e7f6024913960400191505060405180910390fd5b6113808383836107b2565b61138b6000826111bb565b6001600160a01b03831660009081526001602052604090206113b3908263ffffffff6115d016565b506001600160a01b03821660009081526001602052604090206113dc908263ffffffff6115dc16565b506113ef6002828463ffffffff6115e816565b5080826001600160a01b0316846001600160a01b03167fddf252ad1be2c89b69c2b068fc378daa952ba7f163c4a11628f55a4df523b3ef60405160405180910390a4505050565b600061094b83836115fe565b60008080806114518686611662565b9097909650945050505050565b6114788282604051806020016040528060008152506116dd565b5050565b600061148984848461172f565b90505b9392505050565b61149e8484846112d8565b6114aa848484846117f9565b610dbd5760405162461bcd60e51b8152600401808060200182810382526032815260200180611e276032913960400191505060405180910390fd5b60608161150a57506040805180820190915260018152600360fc1b60208201526105df565b8160005b811561152257600101600a8204915061150e565b60608167ffffffffffffffff8111801561153b57600080fd5b506040519080825280601f01601f191660200182016040528015611566576020820181803683370190505b50859350905060001982015b83156115b757600a840660300160f81b8282806001900393508151811061159557fe5b60200101906001600160f81b031916908160001a905350600a84049350611572565b50949350505050565b600061094b8383611979565b5490565b600061094b8383611991565b600061094b8383611a57565b600061148984846001600160a01b038516611aa1565b815460009082106116405760405162461bcd60e51b8152600401808060200182810382526022815260200180611e056022913960400191505060405180910390fd5b82600001828154811061164f57fe5b9060005260206000200154905092915050565b8154600090819083106116a65760405162461bcd60e51b8152600401808060200182810382526022815260200180611f5a6022913960400191505060405180910390fd5b60008460000184815481106116b757fe5b906000526020600020906002020190508060000154816001015492509250509250929050565b6116e78383611b38565b6116f460008484846117f9565b6107b25760405162461bcd60e51b8152600401808060200182810382526032815260200180611e276032913960400191505060405180910390fd5b600082815260018401602052604081205482816117ca5760405162461bcd60e51b81526004018080602001828103825283818151815260200191508051906020019080838360005b8381101561178f578181015183820152602001611777565b50505050905090810190601f1680156117bc5780820380516001836020036101000a031916815260200191505b509250505060405180910390fd5b508460000160018203815481106117dd57fe5b9060005260206000209060020201600101549150509392505050565b600061180d846001600160a01b0316611c72565b611819575060016112d0565b606061193f630a85bd0160e11b61182e6111b7565b88878760405160240180856001600160a01b03166001600160a01b03168152602001846001600160a01b03166001600160a01b0316815260200183815260200180602001828103825283818151815260200191508051906020019080838360005b838110156118a757818101518382015260200161188f565b50505050905090810190601f1680156118d45780820380516001836020036101000a031916815260200191505b5095505050505050604051602081830303815290604052906001600160e01b0319166020820180516001600160e01b038381831617835250505050604051806060016040528060328152602001611e27603291396001600160a01b038816919063ffffffff611c7816565b9050600081806020019051602081101561195857600080fd5b50516001600160e01b031916630a85bd0160e11b1492505050949350505050565b60009081526001919091016020526040902054151590565b60008181526001830160205260408120548015611a4d57835460001980830191908101906000908790839081106119c457fe5b90600052602060002001549050808760000184815481106119e157fe5b600091825260208083209091019290925582815260018981019092526040902090840190558654879080611a1157fe5b6001900381819060005260206000200160009055905586600101600087815260200190815260200160002060009055600194505050505061094e565b600091505061094e565b6000611a638383611979565b611a995750815460018181018455600084815260208082209093018490558454848252828601909352604090209190915561094e565b50600061094e565b600082815260018401602052604081205480611b0657505060408051808201825283815260208082018481528654600181810189556000898152848120955160029093029095019182559151908201558654868452818801909252929091205561148c565b82856000016001830381548110611b1957fe5b906000526020600020906002020160010181905550600091505061148c565b6001600160a01b038216611b93576040805162461bcd60e51b815260206004820181905260248201527f4552433732313a206d696e7420746f20746865207a65726f2061646472657373604482015290519081900360640190fd5b611b9c816111a4565b15611bee576040805162461bcd60e51b815260206004820152601c60248201527f4552433732313a20746f6b656e20616c7265616479206d696e74656400000000604482015290519081900360640190fd5b611bfa600083836107b2565b6001600160a01b0382166000908152600160205260409020611c22908263ffffffff6115dc16565b50611c356002828463ffffffff6115e816565b5060405181906001600160a01b038416906000907fddf252ad1be2c89b69c2b068fc378daa952ba7f163c4a11628f55a4df523b3ef908290a45050565b3b151590565b6060611489848460008585611c8c85611c72565b611cdd576040805162461bcd60e51b815260206004820152601d60248201527f416464726573733a2063616c6c20746f206e6f6e2d636f6e7472616374000000604482015290519081900360640190fd5b60006060866001600160a01b031685876040518082805190602001908083835b60208310611d1c5780518252601f199092019160209182019101611cfd565b6001836020036101000a03801982511681845116808217855250505050505090500191505060006040518083038185875af1925050503d8060008114611d7e576040519150601f19603f3d011682016040523d82523d6000602084013e611d83565b606091505b5091509150611d93828286611d9e565b979650505050505050565b60608315611dad57508161148c565b825115611dbd5782518084602001fd5b60405162461bcd60e51b815260206004820181815284516024840152845185939192839260440191908501908083836000831561178f57818101518382015260200161177756fe456e756d657261626c655365743a20696e646578206f7574206f6620626f756e64734552433732313a207472616e7366657220746f206e6f6e20455243373231526563656976657220696d706c656d656e7465724f776e61626c653a206e6577206f776e657220697320746865207a65726f20616464726573734552433732313a207472616e7366657220746f20746865207a65726f20616464726573734552433732313a206f70657261746f7220717565727920666f72206e6f6e6578697374656e7420746f6b656e4552433732313a20617070726f76652063616c6c6572206973206e6f74206f776e6572206e6f7220617070726f76656420666f7220616c6c4552433732313a2062616c616e636520717565727920666f7220746865207a65726f20616464726573734552433732313a206f776e657220717565727920666f72206e6f6e6578697374656e7420746f6b656e456e756d657261626c654d61703a20696e646578206f7574206f6620626f756e64734552433732313a20617070726f76656420717565727920666f72206e6f6e6578697374656e7420746f6b656e4552433732313a207472616e73666572206f6620746f6b656e2074686174206973206e6f74206f776e4552433732314d657461646174613a2055524920717565727920666f72206e6f6e6578697374656e7420746f6b656e4552433732313a20617070726f76616c20746f2063757272656e74206f776e65724552433732313a207472616e736665722063616c6c6572206973206e6f74206f776e6572206e6f7220617070726f766564a26469706673582212207271ac7eaac6daf88eeabdebabc593b279e73d17e9516856f76bbd265c65b5b264736f6c63430006060033",
  "bytecodeSha1": "c437f5e80bc2b6551ede18deeda09442e54cfc75",
  "compiler": {
    "evm_version": "istanbul",
    "optimizer": {
      "enabled": true,
      "runs": 200
    },
    "version": "0.6.6+commit.6c089d02"
  },
  "contractName": "GovtMock",
  "language": "Solidity",
  "natspec": {
    "methods": {}
  },
  "opcodes": "PUSH1 0x80 PUSH1 0x40 MSTORE CALLVALUE DUP1 ISZERO PUSH2 0x10 JUMPI PUSH1 0x0 DUP1 REVERT JUMPDEST POP PUSH1 0x4 CALLDATASIZE LT PUSH2 0x41 JUMPI PUSH1 0x0 CALLDATALOAD PUSH1 0xE0 SHR DUP1 PUSH4 0x2B7A8E12 EQ PUSH2 0x46 JUMPI DUP1 PUSH4 0xA3AC0F7D EQ PUSH2 0x86 JUMPI DUP1 PUSH4 0xE052BFBA EQ PUSH2 0x90 JUMPI JUMPDEST PUSH1 0x0 DUP1 REVERT JUMPDEST PUSH2 0x72 PUSH1 0x4 DUP1 CALLDATASIZE SUB PUSH1 0x40 DUP2 LT ISZERO PUSH2 0x5C JUMPI PUSH1 0x0 DUP1 REVERT JUMPDEST POP PUSH1 0x1 PUSH1 0x1 PUSH1 0xA0 SHL SUB DUP2 CALLDATALOAD AND SWAP1 PUSH1 0x20 ADD CALLDATALOAD PUSH2 0xB6 JUMP JUMPDEST PUSH1 0x40 DUP1 MLOAD SWAP2 ISZERO ISZERO DUP3 MSTORE MLOAD SWAP1 DUP2 SWAP1 SUB PUSH1 0x20 ADD SWAP1 RETURN JUMPDEST PUSH2 0x8E PUSH2 0x141 JUMP JUMPDEST STOP JUMPDEST PUSH2 0x72 PUSH1 0x4 DUP1 CALLDATASIZE SUB PUSH1 0x20 DUP2 LT ISZERO PUSH2 0xA6 JUMPI PUSH1 0x0 DUP1 REVERT JUMPDEST POP CALLDATALOAD PUSH1 0x1 PUSH1 0x1 PUSH1 0xA0 SHL SUB AND PUSH2 0x1BD JUMP JUMPDEST PUSH1 0x0 DUP1 SLOAD PUSH1 0x40 DUP1 MLOAD PUSH4 0xF5AF256B PUSH1 0xE0 SHL DUP2 MSTORE PUSH1 0x4 DUP2 ADD DUP6 SWAP1 MSTORE SWAP1 MLOAD PUSH1 0x1 PUSH1 0x1 PUSH1 0xA0 SHL SUB DUP1 DUP8 AND SWAP4 AND SWAP2 PUSH4 0xF5AF256B SWAP2 PUSH1 0x24 DUP1 DUP4 ADD SWAP3 PUSH1 0x20 SWAP3 SWAP2 SWAP1 DUP3 SWAP1 SUB ADD DUP2 DUP7 DUP1 EXTCODESIZE ISZERO DUP1 ISZERO PUSH2 0x104 JUMPI PUSH1 0x0 DUP1 REVERT JUMPDEST POP GAS STATICCALL ISZERO DUP1 ISZERO PUSH2 0x118 JUMPI RETURNDATASIZE PUSH1 0x0 DUP1 RETURNDATACOPY RETURNDATASIZE PUSH1 0x0 REVERT JUMPDEST POP POP POP POP PUSH1 0x40 MLOAD RETURNDATASIZE PUSH1 0x20 DUP2 LT ISZERO PUSH2 0x12E JUMPI PUSH1 0x0 DUP1 REVERT JUMPDEST POP MLOAD PUSH1 0x1 PUSH1 0x1 PUSH1 0xA0 SHL SUB AND EQ SWAP4 SWAP3 POP POP POP JUMP JUMPDEST PUSH1 0x0 DUP1 SLOAD PUSH1 0x40 DUP1 MLOAD PUSH4 0x54BA0F27 PUSH1 0xE0 SHL DUP2 MSTORE CALLER PUSH1 0x4 DUP3 ADD MSTORE SWAP1 MLOAD PUSH1 0x1 PUSH1 0x1 PUSH1 0xA0 SHL SUB SWAP1 SWAP3 AND SWAP3 PUSH4 0x54BA0F27 SWAP3 PUSH1 0x24 DUP1 DUP5 ADD SWAP4 PUSH1 0x20 SWAP4 SWAP1 DUP4 SWAP1 SUB SWAP1 SWAP2 ADD SWAP1 DUP3 SWAP1 DUP8 DUP1 EXTCODESIZE ISZERO DUP1 ISZERO PUSH2 0x18F JUMPI PUSH1 0x0 DUP1 REVERT JUMPDEST POP GAS CALL ISZERO DUP1 ISZERO PUSH2 0x1A3 JUMPI RETURNDATASIZE PUSH1 0x0 DUP1 RETURNDATACOPY RETURNDATASIZE PUSH1 0x0 REVERT JUMPDEST POP POP POP POP PUSH1 0x40 MLOAD RETURNDATASIZE PUSH1 0x20 DUP2 LT ISZERO PUSH2 0x1B9 JUMPI PUSH1 0x0 DUP1 REVERT JUMPDEST POP POP JUMP JUMPDEST PUSH1 0x0 DUP1 SLOAD PUSH1 0x40 DUP1 MLOAD PUSH4 0x2C62FA1 PUSH1 0xE4 SHL DUP2 MSTORE PUSH1 0x1 PUSH1 0x1 PUSH1 0xA0 SHL SUB DUP6 DUP2 AND PUSH1 0x4 DUP4 ADD MSTORE SWAP2 MLOAD PUSH1 0x60 SWAP4 SWAP3 SWAP1 SWAP3 AND SWAP2 PUSH4 0x2C62FA10 SWAP2 PUSH1 0x24 DUP1 DUP3 ADD SWAP3 DUP8 SWAP3 SWAP1 SWAP2 SWAP1 DUP3 SWAP1 SUB ADD DUP2 DUP4 DUP8 DUP1 EXTCODESIZE ISZERO DUP1 ISZERO PUSH2 0x20F JUMPI PUSH1 0x0 DUP1 REVERT JUMPDEST POP GAS CALL ISZERO DUP1 ISZERO PUSH2 0x223 JUMPI RETURNDATASIZE PUSH1 0x0 DUP1 RETURNDATACOPY RETURNDATASIZE PUSH1 0x0 REVERT JUMPDEST POP POP POP POP PUSH1 0x40 MLOAD RETURNDATASIZE PUSH1 0x0 DUP3 RETURNDATACOPY PUSH1 0x1F RETURNDATASIZE SWAP1 DUP2 ADD PUSH1 0x1F NOT AND DUP3 ADD PUSH1 0x40 MSTORE PUSH1 0x20 DUP2 LT ISZERO PUSH2 0x24C JUMPI PUSH1 0x0 DUP1 REVERT JUMPDEST DUP2 ADD SWAP1 DUP1 DUP1 MLOAD PUSH1 0x40 MLOAD SWAP4 SWAP3 SWAP2 SWAP1 DUP5 PUSH5 0x100000000 DUP3 GT ISZERO PUSH2 0x26C JUMPI PUSH1 0x0 DUP1 REVERT JUMPDEST SWAP1 DUP4 ADD SWAP1 PUSH1 0x20 DUP3 ADD DUP6 DUP2 GT ISZERO PUSH2 0x281 JUMPI PUSH1 0x0 DUP1 REVERT JUMPDEST DUP3 MLOAD DUP7 PUSH1 0x20 DUP3 MUL DUP4 ADD GT PUSH5 0x100000000 DUP3 GT OR ISZERO PUSH2 0x29E JUMPI PUSH1 0x0 DUP1 REVERT JUMPDEST DUP3 MSTORE POP DUP2 MLOAD PUSH1 0x20 SWAP2 DUP3 ADD SWAP3 DUP3 ADD SWAP2 MUL DUP1 DUP4 DUP4 PUSH1 0x0 JUMPDEST DUP4 DUP2 LT ISZERO PUSH2 0x2CB JUMPI DUP2 DUP2 ADD MLOAD DUP4 DUP3 ADD MSTORE PUSH1 0x20 ADD PUSH2 0x2B3 JUMP JUMPDEST POP POP POP POP SWAP1 POP ADD PUSH1 0x40 MSTORE POP POP POP SWAP1 POP PUSH1 0x0 DUP1 SWAP1 POP JUMPDEST DUP2 MLOAD DUP2 LT ISZERO PUSH2 0x31E JUMPI PUSH2 0x306 DUP5 DUP4 DUP4 DUP2 MLOAD DUP2 LT PUSH2 0x2F9 JUMPI INVALID JUMPDEST PUSH1 0x20 MUL PUSH1 0x20 ADD ADD MLOAD PUSH2 0xB6 JUMP JUMPDEST ISZERO PUSH2 0x316 JUMPI PUSH1 0x1 SWAP3 POP POP POP PUSH2 0x325 JUMP JUMPDEST PUSH1 0x1 ADD PUSH2 0x2E0 JUMP JUMPDEST POP PUSH1 0x0 SWAP2 POP POP JUMPDEST SWAP2 SWAP1 POP JUMP INVALID LOG2 PUSH5 0x6970667358 0x22 SLT KECCAK256 SWAP6 DUP9 PUSH26 0x94D593768BB915E4D23AC6F4A00581348F5C6D3C5BF58E4EBD5D 0x4D 0xE2 DUP16 PUSH5 0x736F6C6343 STOP MOD MOD STOP CALLER ",
  "sha1": "e874b3ddb956e500098945cee71fbf25cf0acda1",
  "source": "// SPDX-License-Identifier: MIT\n\npragma solidity 0.6.6;\n\nimport \"./NFTMinter.sol\";\n\ncontract GovtMock {\n    NFTMinter minter;\n\n    constructor() public {\n        minter = new NFTMinter();\n    }\n\n    function get_verified() public {\n        NFTMinter(address(minter)).mintNFT(msg.sender);\n    }\n\n    function verify_address(address addr) public returns (bool) {\n        uint256[] memory assets;\n        assets = NFTMinter(address(minter)).assetsOf(addr);\n        for (uint256 i = 0; i < assets.length; i++) {\n            if (verify_owner(addr, assets[i])) {\n                return true;\n            }\n        }\n\n        return false;\n    }\n\n    function verify_owner(address addr_to_verify, uint256 tokenID)\n        public\n        view\n        returns (bool)\n    {\n        return\n            NFTMinter(address(minter)).original_owner(tokenID) ==\n            addr_to_verify;\n    }\n}\n",
  "sourcePath": "contracts/GovtMock.sol",
  "type": "contract"
}