{
  "abi": [
    {
      "inputs": [
        {
          "internalType": "string",
          "name": "_snum",
          "type": "string"
        },
        {
          "internalType": "string",
          "name": "_taluk",
          "type": "string"
        },
        {
          "internalType": "string",
          "name": "_district",
          "type": "string"
        },
        {
          "internalType": "address",
          "name": "_ver",
          "type": "address"
        },
        {
          "internalType": "uint256",
          "name": "_gasreserve",
          "type": "uint256"
        }
      ],
      "stateMutability": "nonpayable",
      "type": "constructor"
    },
    {
      "inputs": [
        {
          "internalType": "address",
          "name": "_check_val",
          "type": "address"
        }
      ],
      "name": "bidder_exists",
      "outputs": [
        {
          "internalType": "bool",
          "name": "",
          "type": "bool"
        }
      ],
      "stateMutability": "view",
      "type": "function"
    },
    {
      "inputs": [
        {
          "internalType": "uint256",
          "name": "",
          "type": "uint256"
        }
      ],
      "name": "bidders",
      "outputs": [
        {
          "internalType": "address",
          "name": "",
          "type": "address"
        }
      ],
      "stateMutability": "view",
      "type": "function"
    },
    {
      "inputs": [],
      "name": "cancel_bid",
      "outputs": [],
      "stateMutability": "nonpayable",
      "type": "function"
    },
    {
      "inputs": [],
      "name": "ctr_state",
      "outputs": [
        {
          "internalType": "enum LandContract.CONTRACT_STATE",
          "name": "",
          "type": "uint8"
        }
      ],
      "stateMutability": "view",
      "type": "function"
    },
    {
      "inputs": [],
      "name": "district",
      "outputs": [
        {
          "internalType": "string",
          "name": "",
          "type": "string"
        }
      ],
      "stateMutability": "view",
      "type": "function"
    },
    {
      "inputs": [],
      "name": "end_sale",
      "outputs": [],
      "stateMutability": "nonpayable",
      "type": "function"
    },
    {
      "inputs": [],
      "name": "enter",
      "outputs": [],
      "stateMutability": "payable",
      "type": "function"
    },
    {
      "inputs": [
        {
          "internalType": "address",
          "name": "bidder",
          "type": "address"
        }
      ],
      "name": "findIndex",
      "outputs": [
        {
          "internalType": "uint256",
          "name": "",
          "type": "uint256"
        }
      ],
      "stateMutability": "view",
      "type": "function"
    },
    {
      "inputs": [],
      "name": "find_max_bidder",
      "outputs": [
        {
          "internalType": "address",
          "name": "",
          "type": "address"
        }
      ],
      "stateMutability": "view",
      "type": "function"
    },
    {
      "inputs": [],
      "name": "gasReserve",
      "outputs": [
        {
          "internalType": "uint256",
          "name": "",
          "type": "uint256"
        }
      ],
      "stateMutability": "view",
      "type": "function"
    },
    {
      "inputs": [],
      "name": "get_current_owner",
      "outputs": [
        {
          "internalType": "address",
          "name": "",
          "type": "address"
        }
      ],
      "stateMutability": "view",
      "type": "function"
    },
    {
      "inputs": [],
      "name": "owner",
      "outputs": [
        {
          "internalType": "address payable",
          "name": "",
          "type": "address"
        }
      ],
      "stateMutability": "view",
      "type": "function"
    },
    {
      "inputs": [
        {
          "internalType": "uint256",
          "name": "",
          "type": "uint256"
        }
      ],
      "name": "prev_owners",
      "outputs": [
        {
          "internalType": "address",
          "name": "",
          "type": "address"
        }
      ],
      "stateMutability": "view",
      "type": "function"
    },
    {
      "inputs": [
        {
          "internalType": "uint256",
          "name": "",
          "type": "uint256"
        }
      ],
      "name": "prev_prices",
      "outputs": [
        {
          "internalType": "uint256",
          "name": "",
          "type": "uint256"
        }
      ],
      "stateMutability": "view",
      "type": "function"
    },
    {
      "inputs": [
        {
          "internalType": "address",
          "name": "bidder",
          "type": "address"
        }
      ],
      "name": "removeBidder",
      "outputs": [],
      "stateMutability": "nonpayable",
      "type": "function"
    },
    {
      "inputs": [
        {
          "internalType": "uint256",
          "name": "_minwei",
          "type": "uint256"
        }
      ],
      "name": "sale",
      "outputs": [],
      "stateMutability": "nonpayable",
      "type": "function"
    },
    {
      "inputs": [],
      "name": "surveyNumber",
      "outputs": [
        {
          "internalType": "string",
          "name": "",
          "type": "string"
        }
      ],
      "stateMutability": "view",
      "type": "function"
    },
    {
      "inputs": [],
      "name": "taluk",
      "outputs": [
        {
          "internalType": "string",
          "name": "",
          "type": "string"
        }
      ],
      "stateMutability": "view",
      "type": "function"
    }
  ],
  "bytecode": "60806040523480156200001157600080fd5b50604051620011d5380380620011d5833981810160405260a08110156200003757600080fd5b81019080805160405193929190846401000000008211156200005857600080fd5b9083019060208201858111156200006e57600080fd5b82516401000000008111828201881017156200008957600080fd5b82525081516020918201929091019080838360005b83811015620000b85781810151838201526020016200009e565b50505050905090810190601f168015620000e65780820380516001836020036101000a031916815260200191505b50604052602001805160405193929190846401000000008211156200010a57600080fd5b9083019060208201858111156200012057600080fd5b82516401000000008111828201881017156200013b57600080fd5b82525081516020918201929091019080838360005b838110156200016a57818101518382015260200162000150565b50505050905090810190601f168015620001985780820380516001836020036101000a031916815260200191505b5060405260200180516040519392919084640100000000821115620001bc57600080fd5b908301906020820185811115620001d257600080fd5b8251640100000000811182820188101715620001ed57600080fd5b82525081516020918201929091019080838360005b838110156200021c57818101518382015260200162000202565b50505050905090810190601f1680156200024a5780820380516001836020036101000a031916815260200191505b5060409081526020828101519290910151865192945092506200027391600191870190620002ee565b50845162000289906000906020880190620002ee565b5082516200029f906002906020860190620002ee565b5060058054600160ff1990911617610100600160a81b0319163361010002179055600380546001600160a01b0319166001600160a01b0393909316929092179091556004555062000393915050565b828054600181600116156101000203166002900490600052602060002090601f016020900481019282601f106200033157805160ff191683800117855562000361565b8280016001018555821562000361579182015b828111156200036157825182559160200191906001019062000344565b506200036f92915062000373565b5090565b6200039091905b808211156200036f57600081556001016200037a565b90565b610e3280620003a36000396000f3fe6080604052600436106101095760003560e01c80639603270211610095578063cfe52dea11610064578063cfe52dea14610395578063cff29dfd146103aa578063dbdc736e146103d4578063e97dcb62146103e9578063eea7570e146103f157610109565b80639603270214610299578063a532fca9146102c3578063a81d6edd146102f6578063aad8cb681461038057610109565b806350829263116100dc57806350829263146101d65780635264b12e146101eb5780637ed8a7051461021e578063868c9236146102485780638da5cb5b1461028457610109565b80630f94819d1461010e57806310a576a61461015557806311343a9b146101865780632bdda9be1461019d575b600080fd5b34801561011a57600080fd5b506101416004803603602081101561013157600080fd5b50356001600160a01b0316610406565b604080519115158252519081900360200190f35b34801561016157600080fd5b5061016a610463565b604080516001600160a01b039092168252519081900360200190f35b34801561019257600080fd5b5061019b610478565b005b3480156101a957600080fd5b506101b2610805565b604051808260018111156101c257fe5b60ff16815260200191505060405180910390f35b3480156101e257600080fd5b5061019b61080e565b3480156101f757600080fd5b5061019b6004803603602081101561020e57600080fd5b50356001600160a01b031661086e565b34801561022a57600080fd5b5061016a6004803603602081101561024157600080fd5b503561089f565b34801561025457600080fd5b506102726004803603602081101561026b57600080fd5b50356108c6565b60408051918252519081900360200190f35b34801561029057600080fd5b5061016a6108e4565b3480156102a557600080fd5b5061019b600480360360208110156102bc57600080fd5b50356108f8565b3480156102cf57600080fd5b50610272600480360360208110156102e657600080fd5b50356001600160a01b03166109ba565b34801561030257600080fd5b5061030b610a0f565b6040805160208082528351818301528351919283929083019185019080838360005b8381101561034557818101518382015260200161032d565b50505050905090810190601f1680156103725780820380516001836020036101000a031916815260200191505b509250505060405180910390f35b34801561038c57600080fd5b5061030b610a9d565b3480156103a157600080fd5b5061030b610af5565b3480156103b657600080fd5b5061016a600480360360208110156103cd57600080fd5b5035610b4f565b3480156103e057600080fd5b5061016a610b5c565b61019b610c06565b3480156103fd57600080fd5b50610272610d48565b6000805b60085481101561045857826001600160a01b03166008828154811061042b57fe5b6000918252602090912001546001600160a01b0316141561045057600191505061045e565b60010161040a565b50600090505b919050565b60055461010090046001600160a01b03165b90565b6000610482610b5c565b6001600160a01b038116600090815260096020526040902054600a54919250908110156105e7576005805460ff1916600117905560005b600854811015610568576000600882815481106104d257fe5b6000918252602082200154600880546001600160a01b039092169350600991839190869081106104fe57fe5b60009182526020808320909101546001600160a01b03908116845290830193909352604091820181205460045492519094509285169291840380156108fc02929091818181858888f1935050505015801561055d573d6000803e3d6000fd5b5050506001016104b9565b5060005b6008548110156105b6576000600960006008848154811061058957fe5b60009182526020808320909101546001600160a01b0316835282019290925260400190205560010161056c565b5060408051600081526020810191829052516105d491600891610d4e565b506005805460ff19166001179055610801565b6005546004546040516001600160a01b03610100909304929092169190830380156108fc02916000818181858888f1935050505015801561062c573d6000803e3d6000fd5b50600580546006805460018101825560009182527ff652222313e28459528d920b65115c16c04f3efc82aaedc97be59f3f377c0d3f0180546001600160a01b0319166001600160a01b03610100948590048116919091179091558354908616909202610100600160a81b0319909216919091179091555b600854811015610752576000600882815481106106bc57fe5b6000918252602082200154600880546001600160a01b039092169350600991839190869081106106e857fe5b60009182526020808320909101546001600160a01b03908116845290830193909352604091820181205460045492519094509285169291840380156108fc02929091818181858888f19350505050158015610747573d6000803e3d6000fd5b5050506001016106a3565b5060005b6008548110156107a0576000600960006008848154811061077357fe5b60009182526020808320909101546001600160a01b03168352820192909252604001902055600101610756565b5060408051600081526020810191829052516107be91600891610d4e565b506005805460ff191660019081179091556007805491820181556000527fa66cc928b5edb82af9bd49922954155ab7b0942694bea4ce44661d9a8736c688018190555b5050565b60055460ff1681565b61081733610406565b61082057600080fd5b33600081815260096020526040808220805490839055905190929183156108fc02918491818181858888f19350505050158015610861573d6000803e3d6000fd5b5061086b3361086e565b50565b6008610879826109ba565b8154811061088357fe5b600091825260209091200180546001600160a01b031916905550565b600681815481106108ac57fe5b6000918252602090912001546001600160a01b0316905081565b600781815481106108d357fe5b600091825260209091200154905081565b60055461010090046001600160a01b031681565b60055461010090046001600160a01b031633146109465760405162461bcd60e51b8152600401808060200182810382526025815260200180610dd86025913960400191505060405180910390fd5b600160055460ff16600181111561095957fe5b146109ab576040805162461bcd60e51b815260206004820152601a60248201527f41756374696f6e20697320616c7265616479206f6e676f696e67000000000000604482015290519081900360640190fd5b6005805460ff19169055600a55565b6000805b600854811015610a0957826001600160a01b0316600882815481106109df57fe5b6000918252602090912001546001600160a01b03161415610a0157905061045e565b6001016109be565b50919050565b6000805460408051602060026001851615610100026000190190941693909304601f81018490048402820184019092528181529291830182828015610a955780601f10610a6a57610100808354040283529160200191610a95565b820191906000526020600020905b815481529060010190602001808311610a7857829003601f168201915b505050505081565b6002805460408051602060018416156101000260001901909316849004601f81018490048402820184019092528181529291830182828015610a955780601f10610a6a57610100808354040283529160200191610a95565b60018054604080516020600284861615610100026000190190941693909304601f81018490048402820184019092528181529291830182828015610a955780601f10610a6a57610100808354040283529160200191610a95565b600881815481106108ac57fe5b600854600090610b6b57600080fd5b60006008600081548110610b7b57fe5b60009182526020808320909101546001600160a01b031680835260099091526040822054909250905b600854811015610bfe57600060088281548110610bbd57fe5b60009182526020808320909101546001600160a01b0316808352600990915260409091205490915083811115610bf4578194508093505b5050600101610ba4565b509091505090565b600354604080516370295fdd60e11b815233600482015290516001600160a01b0390921691829163e052bfba9160248083019260209291908290030181600087803b158015610c5457600080fd5b505af1158015610c68573d6000803e3d6000fd5b505050506040513d6020811015610c7e57600080fd5b5051610c8957600080fd5b6004543411610c9757600080fd5b610ca033610406565b15610cf4573360008181526009602052604080822054600454915190939291840380156108fc0292909190818181858888f19350505050158015610ce8573d6000803e3d6000fd5b50610cf23361086e565b505b5060088054600181019091557ff3f7a9fe364faab93b216da50a3214154f22a0a2b415b23a84c8169e8b636ee30180546001600160a01b031916339081179091556000908152600960205260409020349055565b60045481565b828054828255906000526020600020908101928215610da3579160200282015b82811115610da357825182546001600160a01b0319166001600160a01b03909116178255602090920191600190910190610d6e565b50610daf929150610db3565b5090565b61047591905b80821115610daf5780546001600160a01b0319168155600101610db956fe4f6e6c7920746865206f776e65722063616e2063616c6c20746869732066756e6374696f6ea2646970667358221220c1de282e3434fc0d2a3a86181e3e4fb430c941e031c6843337ba2b5c92c4b5c864736f6c63430006060033",
  "bytecodeSha1": "9b4c876256d318d97dac8a1f8a04828d1fb04514",
  "compiler": {
    "evm_version": "istanbul",
    "optimizer": {
      "enabled": true,
      "runs": 200
    },
    "version": "0.6.6+commit.6c089d02"
  },
  "contractName": "LandContract",
  "language": "Solidity",
  "natspec": {
    "methods": {}
  },
  "opcodes": "PUSH1 0x80 PUSH1 0x40 MSTORE PUSH1 0x4 CALLDATASIZE LT PUSH2 0x109 JUMPI PUSH1 0x0 CALLDATALOAD PUSH1 0xE0 SHR DUP1 PUSH4 0x96032702 GT PUSH2 0x95 JUMPI DUP1 PUSH4 0xCFE52DEA GT PUSH2 0x64 JUMPI DUP1 PUSH4 0xCFE52DEA EQ PUSH2 0x395 JUMPI DUP1 PUSH4 0xCFF29DFD EQ PUSH2 0x3AA JUMPI DUP1 PUSH4 0xDBDC736E EQ PUSH2 0x3D4 JUMPI DUP1 PUSH4 0xE97DCB62 EQ PUSH2 0x3E9 JUMPI DUP1 PUSH4 0xEEA7570E EQ PUSH2 0x3F1 JUMPI PUSH2 0x109 JUMP JUMPDEST DUP1 PUSH4 0x96032702 EQ PUSH2 0x299 JUMPI DUP1 PUSH4 0xA532FCA9 EQ PUSH2 0x2C3 JUMPI DUP1 PUSH4 0xA81D6EDD EQ PUSH2 0x2F6 JUMPI DUP1 PUSH4 0xAAD8CB68 EQ PUSH2 0x380 JUMPI PUSH2 0x109 JUMP JUMPDEST DUP1 PUSH4 0x50829263 GT PUSH2 0xDC JUMPI DUP1 PUSH4 0x50829263 EQ PUSH2 0x1D6 JUMPI DUP1 PUSH4 0x5264B12E EQ PUSH2 0x1EB JUMPI DUP1 PUSH4 0x7ED8A705 EQ PUSH2 0x21E JUMPI DUP1 PUSH4 0x868C9236 EQ PUSH2 0x248 JUMPI DUP1 PUSH4 0x8DA5CB5B EQ PUSH2 0x284 JUMPI PUSH2 0x109 JUMP JUMPDEST DUP1 PUSH4 0xF94819D EQ PUSH2 0x10E JUMPI DUP1 PUSH4 0x10A576A6 EQ PUSH2 0x155 JUMPI DUP1 PUSH4 0x11343A9B EQ PUSH2 0x186 JUMPI DUP1 PUSH4 0x2BDDA9BE EQ PUSH2 0x19D JUMPI JUMPDEST PUSH1 0x0 DUP1 REVERT JUMPDEST CALLVALUE DUP1 ISZERO PUSH2 0x11A JUMPI PUSH1 0x0 DUP1 REVERT JUMPDEST POP PUSH2 0x141 PUSH1 0x4 DUP1 CALLDATASIZE SUB PUSH1 0x20 DUP2 LT ISZERO PUSH2 0x131 JUMPI PUSH1 0x0 DUP1 REVERT JUMPDEST POP CALLDATALOAD PUSH1 0x1 PUSH1 0x1 PUSH1 0xA0 SHL SUB AND PUSH2 0x406 JUMP JUMPDEST PUSH1 0x40 DUP1 MLOAD SWAP2 ISZERO ISZERO DUP3 MSTORE MLOAD SWAP1 DUP2 SWAP1 SUB PUSH1 0x20 ADD SWAP1 RETURN JUMPDEST CALLVALUE DUP1 ISZERO PUSH2 0x161 JUMPI PUSH1 0x0 DUP1 REVERT JUMPDEST POP PUSH2 0x16A PUSH2 0x463 JUMP JUMPDEST PUSH1 0x40 DUP1 MLOAD PUSH1 0x1 PUSH1 0x1 PUSH1 0xA0 SHL SUB SWAP1 SWAP3 AND DUP3 MSTORE MLOAD SWAP1 DUP2 SWAP1 SUB PUSH1 0x20 ADD SWAP1 RETURN JUMPDEST CALLVALUE DUP1 ISZERO PUSH2 0x192 JUMPI PUSH1 0x0 DUP1 REVERT JUMPDEST POP PUSH2 0x19B PUSH2 0x478 JUMP JUMPDEST STOP JUMPDEST CALLVALUE DUP1 ISZERO PUSH2 0x1A9 JUMPI PUSH1 0x0 DUP1 REVERT JUMPDEST POP PUSH2 0x1B2 PUSH2 0x805 JUMP JUMPDEST PUSH1 0x40 MLOAD DUP1 DUP3 PUSH1 0x1 DUP2 GT ISZERO PUSH2 0x1C2 JUMPI INVALID JUMPDEST PUSH1 0xFF AND DUP2 MSTORE PUSH1 0x20 ADD SWAP2 POP POP PUSH1 0x40 MLOAD DUP1 SWAP2 SUB SWAP1 RETURN JUMPDEST CALLVALUE DUP1 ISZERO PUSH2 0x1E2 JUMPI PUSH1 0x0 DUP1 REVERT JUMPDEST POP PUSH2 0x19B PUSH2 0x80E JUMP JUMPDEST CALLVALUE DUP1 ISZERO PUSH2 0x1F7 JUMPI PUSH1 0x0 DUP1 REVERT JUMPDEST POP PUSH2 0x19B PUSH1 0x4 DUP1 CALLDATASIZE SUB PUSH1 0x20 DUP2 LT ISZERO PUSH2 0x20E JUMPI PUSH1 0x0 DUP1 REVERT JUMPDEST POP CALLDATALOAD PUSH1 0x1 PUSH1 0x1 PUSH1 0xA0 SHL SUB AND PUSH2 0x86E JUMP JUMPDEST CALLVALUE DUP1 ISZERO PUSH2 0x22A JUMPI PUSH1 0x0 DUP1 REVERT JUMPDEST POP PUSH2 0x16A PUSH1 0x4 DUP1 CALLDATASIZE SUB PUSH1 0x20 DUP2 LT ISZERO PUSH2 0x241 JUMPI PUSH1 0x0 DUP1 REVERT JUMPDEST POP CALLDATALOAD PUSH2 0x89F JUMP JUMPDEST CALLVALUE DUP1 ISZERO PUSH2 0x254 JUMPI PUSH1 0x0 DUP1 REVERT JUMPDEST POP PUSH2 0x272 PUSH1 0x4 DUP1 CALLDATASIZE SUB PUSH1 0x20 DUP2 LT ISZERO PUSH2 0x26B JUMPI PUSH1 0x0 DUP1 REVERT JUMPDEST POP CALLDATALOAD PUSH2 0x8C6 JUMP JUMPDEST PUSH1 0x40 DUP1 MLOAD SWAP2 DUP3 MSTORE MLOAD SWAP1 DUP2 SWAP1 SUB PUSH1 0x20 ADD SWAP1 RETURN JUMPDEST CALLVALUE DUP1 ISZERO PUSH2 0x290 JUMPI PUSH1 0x0 DUP1 REVERT JUMPDEST POP PUSH2 0x16A PUSH2 0x8E4 JUMP JUMPDEST CALLVALUE DUP1 ISZERO PUSH2 0x2A5 JUMPI PUSH1 0x0 DUP1 REVERT JUMPDEST POP PUSH2 0x19B PUSH1 0x4 DUP1 CALLDATASIZE SUB PUSH1 0x20 DUP2 LT ISZERO PUSH2 0x2BC JUMPI PUSH1 0x0 DUP1 REVERT JUMPDEST POP CALLDATALOAD PUSH2 0x8F8 JUMP JUMPDEST CALLVALUE DUP1 ISZERO PUSH2 0x2CF JUMPI PUSH1 0x0 DUP1 REVERT JUMPDEST POP PUSH2 0x272 PUSH1 0x4 DUP1 CALLDATASIZE SUB PUSH1 0x20 DUP2 LT ISZERO PUSH2 0x2E6 JUMPI PUSH1 0x0 DUP1 REVERT JUMPDEST POP CALLDATALOAD PUSH1 0x1 PUSH1 0x1 PUSH1 0xA0 SHL SUB AND PUSH2 0x9BA JUMP JUMPDEST CALLVALUE DUP1 ISZERO PUSH2 0x302 JUMPI PUSH1 0x0 DUP1 REVERT JUMPDEST POP PUSH2 0x30B PUSH2 0xA0F JUMP JUMPDEST PUSH1 0x40 DUP1 MLOAD PUSH1 0x20 DUP1 DUP3 MSTORE DUP4 MLOAD DUP2 DUP4 ADD MSTORE DUP4 MLOAD SWAP2 SWAP3 DUP4 SWAP3 SWAP1 DUP4 ADD SWAP2 DUP6 ADD SWAP1 DUP1 DUP4 DUP4 PUSH1 0x0 JUMPDEST DUP4 DUP2 LT ISZERO PUSH2 0x345 JUMPI DUP2 DUP2 ADD MLOAD DUP4 DUP3 ADD MSTORE PUSH1 0x20 ADD PUSH2 0x32D JUMP JUMPDEST POP POP POP POP SWAP1 POP SWAP1 DUP2 ADD SWAP1 PUSH1 0x1F AND DUP1 ISZERO PUSH2 0x372 JUMPI DUP1 DUP3 SUB DUP1 MLOAD PUSH1 0x1 DUP4 PUSH1 0x20 SUB PUSH2 0x100 EXP SUB NOT AND DUP2 MSTORE PUSH1 0x20 ADD SWAP2 POP JUMPDEST POP SWAP3 POP POP POP PUSH1 0x40 MLOAD DUP1 SWAP2 SUB SWAP1 RETURN JUMPDEST CALLVALUE DUP1 ISZERO PUSH2 0x38C JUMPI PUSH1 0x0 DUP1 REVERT JUMPDEST POP PUSH2 0x30B PUSH2 0xA9D JUMP JUMPDEST CALLVALUE DUP1 ISZERO PUSH2 0x3A1 JUMPI PUSH1 0x0 DUP1 REVERT JUMPDEST POP PUSH2 0x30B PUSH2 0xAF5 JUMP JUMPDEST CALLVALUE DUP1 ISZERO PUSH2 0x3B6 JUMPI PUSH1 0x0 DUP1 REVERT JUMPDEST POP PUSH2 0x16A PUSH1 0x4 DUP1 CALLDATASIZE SUB PUSH1 0x20 DUP2 LT ISZERO PUSH2 0x3CD JUMPI PUSH1 0x0 DUP1 REVERT JUMPDEST POP CALLDATALOAD PUSH2 0xB4F JUMP JUMPDEST CALLVALUE DUP1 ISZERO PUSH2 0x3E0 JUMPI PUSH1 0x0 DUP1 REVERT JUMPDEST POP PUSH2 0x16A PUSH2 0xB5C JUMP JUMPDEST PUSH2 0x19B PUSH2 0xC06 JUMP JUMPDEST CALLVALUE DUP1 ISZERO PUSH2 0x3FD JUMPI PUSH1 0x0 DUP1 REVERT JUMPDEST POP PUSH2 0x272 PUSH2 0xD48 JUMP JUMPDEST PUSH1 0x0 DUP1 JUMPDEST PUSH1 0x8 SLOAD DUP2 LT ISZERO PUSH2 0x458 JUMPI DUP3 PUSH1 0x1 PUSH1 0x1 PUSH1 0xA0 SHL SUB AND PUSH1 0x8 DUP3 DUP2 SLOAD DUP2 LT PUSH2 0x42B JUMPI INVALID JUMPDEST PUSH1 0x0 SWAP2 DUP3 MSTORE PUSH1 0x20 SWAP1 SWAP2 KECCAK256 ADD SLOAD PUSH1 0x1 PUSH1 0x1 PUSH1 0xA0 SHL SUB AND EQ ISZERO PUSH2 0x450 JUMPI PUSH1 0x1 SWAP2 POP POP PUSH2 0x45E JUMP JUMPDEST PUSH1 0x1 ADD PUSH2 0x40A JUMP JUMPDEST POP PUSH1 0x0 SWAP1 POP JUMPDEST SWAP2 SWAP1 POP JUMP JUMPDEST PUSH1 0x5 SLOAD PUSH2 0x100 SWAP1 DIV PUSH1 0x1 PUSH1 0x1 PUSH1 0xA0 SHL SUB AND JUMPDEST SWAP1 JUMP JUMPDEST PUSH1 0x0 PUSH2 0x482 PUSH2 0xB5C JUMP JUMPDEST PUSH1 0x1 PUSH1 0x1 PUSH1 0xA0 SHL SUB DUP2 AND PUSH1 0x0 SWAP1 DUP2 MSTORE PUSH1 0x9 PUSH1 0x20 MSTORE PUSH1 0x40 SWAP1 KECCAK256 SLOAD PUSH1 0xA SLOAD SWAP2 SWAP3 POP SWAP1 DUP2 LT ISZERO PUSH2 0x5E7 JUMPI PUSH1 0x5 DUP1 SLOAD PUSH1 0xFF NOT AND PUSH1 0x1 OR SWAP1 SSTORE PUSH1 0x0 JUMPDEST PUSH1 0x8 SLOAD DUP2 LT ISZERO PUSH2 0x568 JUMPI PUSH1 0x0 PUSH1 0x8 DUP3 DUP2 SLOAD DUP2 LT PUSH2 0x4D2 JUMPI INVALID JUMPDEST PUSH1 0x0 SWAP2 DUP3 MSTORE PUSH1 0x20 DUP3 KECCAK256 ADD SLOAD PUSH1 0x8 DUP1 SLOAD PUSH1 0x1 PUSH1 0x1 PUSH1 0xA0 SHL SUB SWAP1 SWAP3 AND SWAP4 POP PUSH1 0x9 SWAP2 DUP4 SWAP2 SWAP1 DUP7 SWAP1 DUP2 LT PUSH2 0x4FE JUMPI INVALID JUMPDEST PUSH1 0x0 SWAP2 DUP3 MSTORE PUSH1 0x20 DUP1 DUP4 KECCAK256 SWAP1 SWAP2 ADD SLOAD PUSH1 0x1 PUSH1 0x1 PUSH1 0xA0 SHL SUB SWAP1 DUP2 AND DUP5 MSTORE SWAP1 DUP4 ADD SWAP4 SWAP1 SWAP4 MSTORE PUSH1 0x40 SWAP2 DUP3 ADD DUP2 KECCAK256 SLOAD PUSH1 0x4 SLOAD SWAP3 MLOAD SWAP1 SWAP5 POP SWAP3 DUP6 AND SWAP3 SWAP2 DUP5 SUB DUP1 ISZERO PUSH2 0x8FC MUL SWAP3 SWAP1 SWAP2 DUP2 DUP2 DUP2 DUP6 DUP9 DUP9 CALL SWAP4 POP POP POP POP ISZERO DUP1 ISZERO PUSH2 0x55D JUMPI RETURNDATASIZE PUSH1 0x0 DUP1 RETURNDATACOPY RETURNDATASIZE PUSH1 0x0 REVERT JUMPDEST POP POP POP PUSH1 0x1 ADD PUSH2 0x4B9 JUMP JUMPDEST POP PUSH1 0x0 JUMPDEST PUSH1 0x8 SLOAD DUP2 LT ISZERO PUSH2 0x5B6 JUMPI PUSH1 0x0 PUSH1 0x9 PUSH1 0x0 PUSH1 0x8 DUP5 DUP2 SLOAD DUP2 LT PUSH2 0x589 JUMPI INVALID JUMPDEST PUSH1 0x0 SWAP2 DUP3 MSTORE PUSH1 0x20 DUP1 DUP4 KECCAK256 SWAP1 SWAP2 ADD SLOAD PUSH1 0x1 PUSH1 0x1 PUSH1 0xA0 SHL SUB AND DUP4 MSTORE DUP3 ADD SWAP3 SWAP1 SWAP3 MSTORE PUSH1 0x40 ADD SWAP1 KECCAK256 SSTORE PUSH1 0x1 ADD PUSH2 0x56C JUMP JUMPDEST POP PUSH1 0x40 DUP1 MLOAD PUSH1 0x0 DUP2 MSTORE PUSH1 0x20 DUP2 ADD SWAP2 DUP3 SWAP1 MSTORE MLOAD PUSH2 0x5D4 SWAP2 PUSH1 0x8 SWAP2 PUSH2 0xD4E JUMP JUMPDEST POP PUSH1 0x5 DUP1 SLOAD PUSH1 0xFF NOT AND PUSH1 0x1 OR SWAP1 SSTORE PUSH2 0x801 JUMP JUMPDEST PUSH1 0x5 SLOAD PUSH1 0x4 SLOAD PUSH1 0x40 MLOAD PUSH1 0x1 PUSH1 0x1 PUSH1 0xA0 SHL SUB PUSH2 0x100 SWAP1 SWAP4 DIV SWAP3 SWAP1 SWAP3 AND SWAP2 SWAP1 DUP4 SUB DUP1 ISZERO PUSH2 0x8FC MUL SWAP2 PUSH1 0x0 DUP2 DUP2 DUP2 DUP6 DUP9 DUP9 CALL SWAP4 POP POP POP POP ISZERO DUP1 ISZERO PUSH2 0x62C JUMPI RETURNDATASIZE PUSH1 0x0 DUP1 RETURNDATACOPY RETURNDATASIZE PUSH1 0x0 REVERT JUMPDEST POP PUSH1 0x5 DUP1 SLOAD PUSH1 0x6 DUP1 SLOAD PUSH1 0x1 DUP2 ADD DUP3 SSTORE PUSH1 0x0 SWAP2 DUP3 MSTORE PUSH32 0xF652222313E28459528D920B65115C16C04F3EFC82AAEDC97BE59F3F377C0D3F ADD DUP1 SLOAD PUSH1 0x1 PUSH1 0x1 PUSH1 0xA0 SHL SUB NOT AND PUSH1 0x1 PUSH1 0x1 PUSH1 0xA0 SHL SUB PUSH2 0x100 SWAP5 DUP6 SWAP1 DIV DUP2 AND SWAP2 SWAP1 SWAP2 OR SWAP1 SWAP2 SSTORE DUP4 SLOAD SWAP1 DUP7 AND SWAP1 SWAP3 MUL PUSH2 0x100 PUSH1 0x1 PUSH1 0xA8 SHL SUB NOT SWAP1 SWAP3 AND SWAP2 SWAP1 SWAP2 OR SWAP1 SWAP2 SSTORE JUMPDEST PUSH1 0x8 SLOAD DUP2 LT ISZERO PUSH2 0x752 JUMPI PUSH1 0x0 PUSH1 0x8 DUP3 DUP2 SLOAD DUP2 LT PUSH2 0x6BC JUMPI INVALID JUMPDEST PUSH1 0x0 SWAP2 DUP3 MSTORE PUSH1 0x20 DUP3 KECCAK256 ADD SLOAD PUSH1 0x8 DUP1 SLOAD PUSH1 0x1 PUSH1 0x1 PUSH1 0xA0 SHL SUB SWAP1 SWAP3 AND SWAP4 POP PUSH1 0x9 SWAP2 DUP4 SWAP2 SWAP1 DUP7 SWAP1 DUP2 LT PUSH2 0x6E8 JUMPI INVALID JUMPDEST PUSH1 0x0 SWAP2 DUP3 MSTORE PUSH1 0x20 DUP1 DUP4 KECCAK256 SWAP1 SWAP2 ADD SLOAD PUSH1 0x1 PUSH1 0x1 PUSH1 0xA0 SHL SUB SWAP1 DUP2 AND DUP5 MSTORE SWAP1 DUP4 ADD SWAP4 SWAP1 SWAP4 MSTORE PUSH1 0x40 SWAP2 DUP3 ADD DUP2 KECCAK256 SLOAD PUSH1 0x4 SLOAD SWAP3 MLOAD SWAP1 SWAP5 POP SWAP3 DUP6 AND SWAP3 SWAP2 DUP5 SUB DUP1 ISZERO PUSH2 0x8FC MUL SWAP3 SWAP1 SWAP2 DUP2 DUP2 DUP2 DUP6 DUP9 DUP9 CALL SWAP4 POP POP POP POP ISZERO DUP1 ISZERO PUSH2 0x747 JUMPI RETURNDATASIZE PUSH1 0x0 DUP1 RETURNDATACOPY RETURNDATASIZE PUSH1 0x0 REVERT JUMPDEST POP POP POP PUSH1 0x1 ADD PUSH2 0x6A3 JUMP JUMPDEST POP PUSH1 0x0 JUMPDEST PUSH1 0x8 SLOAD DUP2 LT ISZERO PUSH2 0x7A0 JUMPI PUSH1 0x0 PUSH1 0x9 PUSH1 0x0 PUSH1 0x8 DUP5 DUP2 SLOAD DUP2 LT PUSH2 0x773 JUMPI INVALID JUMPDEST PUSH1 0x0 SWAP2 DUP3 MSTORE PUSH1 0x20 DUP1 DUP4 KECCAK256 SWAP1 SWAP2 ADD SLOAD PUSH1 0x1 PUSH1 0x1 PUSH1 0xA0 SHL SUB AND DUP4 MSTORE DUP3 ADD SWAP3 SWAP1 SWAP3 MSTORE PUSH1 0x40 ADD SWAP1 KECCAK256 SSTORE PUSH1 0x1 ADD PUSH2 0x756 JUMP JUMPDEST POP PUSH1 0x40 DUP1 MLOAD PUSH1 0x0 DUP2 MSTORE PUSH1 0x20 DUP2 ADD SWAP2 DUP3 SWAP1 MSTORE MLOAD PUSH2 0x7BE SWAP2 PUSH1 0x8 SWAP2 PUSH2 0xD4E JUMP JUMPDEST POP PUSH1 0x5 DUP1 SLOAD PUSH1 0xFF NOT AND PUSH1 0x1 SWAP1 DUP2 OR SWAP1 SWAP2 SSTORE PUSH1 0x7 DUP1 SLOAD SWAP2 DUP3 ADD DUP2 SSTORE PUSH1 0x0 MSTORE PUSH32 0xA66CC928B5EDB82AF9BD49922954155AB7B0942694BEA4CE44661D9A8736C688 ADD DUP2 SWAP1 SSTORE JUMPDEST POP POP JUMP JUMPDEST PUSH1 0x5 SLOAD PUSH1 0xFF AND DUP2 JUMP JUMPDEST PUSH2 0x817 CALLER PUSH2 0x406 JUMP JUMPDEST PUSH2 0x820 JUMPI PUSH1 0x0 DUP1 REVERT JUMPDEST CALLER PUSH1 0x0 DUP2 DUP2 MSTORE PUSH1 0x9 PUSH1 0x20 MSTORE PUSH1 0x40 DUP1 DUP3 KECCAK256 DUP1 SLOAD SWAP1 DUP4 SWAP1 SSTORE SWAP1 MLOAD SWAP1 SWAP3 SWAP2 DUP4 ISZERO PUSH2 0x8FC MUL SWAP2 DUP5 SWAP2 DUP2 DUP2 DUP2 DUP6 DUP9 DUP9 CALL SWAP4 POP POP POP POP ISZERO DUP1 ISZERO PUSH2 0x861 JUMPI RETURNDATASIZE PUSH1 0x0 DUP1 RETURNDATACOPY RETURNDATASIZE PUSH1 0x0 REVERT JUMPDEST POP PUSH2 0x86B CALLER PUSH2 0x86E JUMP JUMPDEST POP JUMP JUMPDEST PUSH1 0x8 PUSH2 0x879 DUP3 PUSH2 0x9BA JUMP JUMPDEST DUP2 SLOAD DUP2 LT PUSH2 0x883 JUMPI INVALID JUMPDEST PUSH1 0x0 SWAP2 DUP3 MSTORE PUSH1 0x20 SWAP1 SWAP2 KECCAK256 ADD DUP1 SLOAD PUSH1 0x1 PUSH1 0x1 PUSH1 0xA0 SHL SUB NOT AND SWAP1 SSTORE POP JUMP JUMPDEST PUSH1 0x6 DUP2 DUP2 SLOAD DUP2 LT PUSH2 0x8AC JUMPI INVALID JUMPDEST PUSH1 0x0 SWAP2 DUP3 MSTORE PUSH1 0x20 SWAP1 SWAP2 KECCAK256 ADD SLOAD PUSH1 0x1 PUSH1 0x1 PUSH1 0xA0 SHL SUB AND SWAP1 POP DUP2 JUMP JUMPDEST PUSH1 0x7 DUP2 DUP2 SLOAD DUP2 LT PUSH2 0x8D3 JUMPI INVALID JUMPDEST PUSH1 0x0 SWAP2 DUP3 MSTORE PUSH1 0x20 SWAP1 SWAP2 KECCAK256 ADD SLOAD SWAP1 POP DUP2 JUMP JUMPDEST PUSH1 0x5 SLOAD PUSH2 0x100 SWAP1 DIV PUSH1 0x1 PUSH1 0x1 PUSH1 0xA0 SHL SUB AND DUP2 JUMP JUMPDEST PUSH1 0x5 SLOAD PUSH2 0x100 SWAP1 DIV PUSH1 0x1 PUSH1 0x1 PUSH1 0xA0 SHL SUB AND CALLER EQ PUSH2 0x946 JUMPI PUSH1 0x40 MLOAD PUSH3 0x461BCD PUSH1 0xE5 SHL DUP2 MSTORE PUSH1 0x4 ADD DUP1 DUP1 PUSH1 0x20 ADD DUP3 DUP2 SUB DUP3 MSTORE PUSH1 0x25 DUP2 MSTORE PUSH1 0x20 ADD DUP1 PUSH2 0xDD8 PUSH1 0x25 SWAP2 CODECOPY PUSH1 0x40 ADD SWAP2 POP POP PUSH1 0x40 MLOAD DUP1 SWAP2 SUB SWAP1 REVERT JUMPDEST PUSH1 0x1 PUSH1 0x5 SLOAD PUSH1 0xFF AND PUSH1 0x1 DUP2 GT ISZERO PUSH2 0x959 JUMPI INVALID JUMPDEST EQ PUSH2 0x9AB JUMPI PUSH1 0x40 DUP1 MLOAD PUSH3 0x461BCD PUSH1 0xE5 SHL DUP2 MSTORE PUSH1 0x20 PUSH1 0x4 DUP3 ADD MSTORE PUSH1 0x1A PUSH1 0x24 DUP3 ADD MSTORE PUSH32 0x41756374696F6E20697320616C7265616479206F6E676F696E67000000000000 PUSH1 0x44 DUP3 ADD MSTORE SWAP1 MLOAD SWAP1 DUP2 SWAP1 SUB PUSH1 0x64 ADD SWAP1 REVERT JUMPDEST PUSH1 0x5 DUP1 SLOAD PUSH1 0xFF NOT AND SWAP1 SSTORE PUSH1 0xA SSTORE JUMP JUMPDEST PUSH1 0x0 DUP1 JUMPDEST PUSH1 0x8 SLOAD DUP2 LT ISZERO PUSH2 0xA09 JUMPI DUP3 PUSH1 0x1 PUSH1 0x1 PUSH1 0xA0 SHL SUB AND PUSH1 0x8 DUP3 DUP2 SLOAD DUP2 LT PUSH2 0x9DF JUMPI INVALID JUMPDEST PUSH1 0x0 SWAP2 DUP3 MSTORE PUSH1 0x20 SWAP1 SWAP2 KECCAK256 ADD SLOAD PUSH1 0x1 PUSH1 0x1 PUSH1 0xA0 SHL SUB AND EQ ISZERO PUSH2 0xA01 JUMPI SWAP1 POP PUSH2 0x45E JUMP JUMPDEST PUSH1 0x1 ADD PUSH2 0x9BE JUMP JUMPDEST POP SWAP2 SWAP1 POP JUMP JUMPDEST PUSH1 0x0 DUP1 SLOAD PUSH1 0x40 DUP1 MLOAD PUSH1 0x20 PUSH1 0x2 PUSH1 0x1 DUP6 AND ISZERO PUSH2 0x100 MUL PUSH1 0x0 NOT ADD SWAP1 SWAP5 AND SWAP4 SWAP1 SWAP4 DIV PUSH1 0x1F DUP2 ADD DUP5 SWAP1 DIV DUP5 MUL DUP3 ADD DUP5 ADD SWAP1 SWAP3 MSTORE DUP2 DUP2 MSTORE SWAP3 SWAP2 DUP4 ADD DUP3 DUP3 DUP1 ISZERO PUSH2 0xA95 JUMPI DUP1 PUSH1 0x1F LT PUSH2 0xA6A JUMPI PUSH2 0x100 DUP1 DUP4 SLOAD DIV MUL DUP4 MSTORE SWAP2 PUSH1 0x20 ADD SWAP2 PUSH2 0xA95 JUMP JUMPDEST DUP3 ADD SWAP2 SWAP1 PUSH1 0x0 MSTORE PUSH1 0x20 PUSH1 0x0 KECCAK256 SWAP1 JUMPDEST DUP2 SLOAD DUP2 MSTORE SWAP1 PUSH1 0x1 ADD SWAP1 PUSH1 0x20 ADD DUP1 DUP4 GT PUSH2 0xA78 JUMPI DUP3 SWAP1 SUB PUSH1 0x1F AND DUP3 ADD SWAP2 JUMPDEST POP POP POP POP POP DUP2 JUMP JUMPDEST PUSH1 0x2 DUP1 SLOAD PUSH1 0x40 DUP1 MLOAD PUSH1 0x20 PUSH1 0x1 DUP5 AND ISZERO PUSH2 0x100 MUL PUSH1 0x0 NOT ADD SWAP1 SWAP4 AND DUP5 SWAP1 DIV PUSH1 0x1F DUP2 ADD DUP5 SWAP1 DIV DUP5 MUL DUP3 ADD DUP5 ADD SWAP1 SWAP3 MSTORE DUP2 DUP2 MSTORE SWAP3 SWAP2 DUP4 ADD DUP3 DUP3 DUP1 ISZERO PUSH2 0xA95 JUMPI DUP1 PUSH1 0x1F LT PUSH2 0xA6A JUMPI PUSH2 0x100 DUP1 DUP4 SLOAD DIV MUL DUP4 MSTORE SWAP2 PUSH1 0x20 ADD SWAP2 PUSH2 0xA95 JUMP JUMPDEST PUSH1 0x1 DUP1 SLOAD PUSH1 0x40 DUP1 MLOAD PUSH1 0x20 PUSH1 0x2 DUP5 DUP7 AND ISZERO PUSH2 0x100 MUL PUSH1 0x0 NOT ADD SWAP1 SWAP5 AND SWAP4 SWAP1 SWAP4 DIV PUSH1 0x1F DUP2 ADD DUP5 SWAP1 DIV DUP5 MUL DUP3 ADD DUP5 ADD SWAP1 SWAP3 MSTORE DUP2 DUP2 MSTORE SWAP3 SWAP2 DUP4 ADD DUP3 DUP3 DUP1 ISZERO PUSH2 0xA95 JUMPI DUP1 PUSH1 0x1F LT PUSH2 0xA6A JUMPI PUSH2 0x100 DUP1 DUP4 SLOAD DIV MUL DUP4 MSTORE SWAP2 PUSH1 0x20 ADD SWAP2 PUSH2 0xA95 JUMP JUMPDEST PUSH1 0x8 DUP2 DUP2 SLOAD DUP2 LT PUSH2 0x8AC JUMPI INVALID JUMPDEST PUSH1 0x8 SLOAD PUSH1 0x0 SWAP1 PUSH2 0xB6B JUMPI PUSH1 0x0 DUP1 REVERT JUMPDEST PUSH1 0x0 PUSH1 0x8 PUSH1 0x0 DUP2 SLOAD DUP2 LT PUSH2 0xB7B JUMPI INVALID JUMPDEST PUSH1 0x0 SWAP2 DUP3 MSTORE PUSH1 0x20 DUP1 DUP4 KECCAK256 SWAP1 SWAP2 ADD SLOAD PUSH1 0x1 PUSH1 0x1 PUSH1 0xA0 SHL SUB AND DUP1 DUP4 MSTORE PUSH1 0x9 SWAP1 SWAP2 MSTORE PUSH1 0x40 DUP3 KECCAK256 SLOAD SWAP1 SWAP3 POP SWAP1 JUMPDEST PUSH1 0x8 SLOAD DUP2 LT ISZERO PUSH2 0xBFE JUMPI PUSH1 0x0 PUSH1 0x8 DUP3 DUP2 SLOAD DUP2 LT PUSH2 0xBBD JUMPI INVALID JUMPDEST PUSH1 0x0 SWAP2 DUP3 MSTORE PUSH1 0x20 DUP1 DUP4 KECCAK256 SWAP1 SWAP2 ADD SLOAD PUSH1 0x1 PUSH1 0x1 PUSH1 0xA0 SHL SUB AND DUP1 DUP4 MSTORE PUSH1 0x9 SWAP1 SWAP2 MSTORE PUSH1 0x40 SWAP1 SWAP2 KECCAK256 SLOAD SWAP1 SWAP2 POP DUP4 DUP2 GT ISZERO PUSH2 0xBF4 JUMPI DUP2 SWAP5 POP DUP1 SWAP4 POP JUMPDEST POP POP PUSH1 0x1 ADD PUSH2 0xBA4 JUMP JUMPDEST POP SWAP1 SWAP2 POP POP SWAP1 JUMP JUMPDEST PUSH1 0x3 SLOAD PUSH1 0x40 DUP1 MLOAD PUSH4 0x70295FDD PUSH1 0xE1 SHL DUP2 MSTORE CALLER PUSH1 0x4 DUP3 ADD MSTORE SWAP1 MLOAD PUSH1 0x1 PUSH1 0x1 PUSH1 0xA0 SHL SUB SWAP1 SWAP3 AND SWAP2 DUP3 SWAP2 PUSH4 0xE052BFBA SWAP2 PUSH1 0x24 DUP1 DUP4 ADD SWAP3 PUSH1 0x20 SWAP3 SWAP2 SWAP1 DUP3 SWAP1 SUB ADD DUP2 PUSH1 0x0 DUP8 DUP1 EXTCODESIZE ISZERO DUP1 ISZERO PUSH2 0xC54 JUMPI PUSH1 0x0 DUP1 REVERT JUMPDEST POP GAS CALL ISZERO DUP1 ISZERO PUSH2 0xC68 JUMPI RETURNDATASIZE PUSH1 0x0 DUP1 RETURNDATACOPY RETURNDATASIZE PUSH1 0x0 REVERT JUMPDEST POP POP POP POP PUSH1 0x40 MLOAD RETURNDATASIZE PUSH1 0x20 DUP2 LT ISZERO PUSH2 0xC7E JUMPI PUSH1 0x0 DUP1 REVERT JUMPDEST POP MLOAD PUSH2 0xC89 JUMPI PUSH1 0x0 DUP1 REVERT JUMPDEST PUSH1 0x4 SLOAD CALLVALUE GT PUSH2 0xC97 JUMPI PUSH1 0x0 DUP1 REVERT JUMPDEST PUSH2 0xCA0 CALLER PUSH2 0x406 JUMP JUMPDEST ISZERO PUSH2 0xCF4 JUMPI CALLER PUSH1 0x0 DUP2 DUP2 MSTORE PUSH1 0x9 PUSH1 0x20 MSTORE PUSH1 0x40 DUP1 DUP3 KECCAK256 SLOAD PUSH1 0x4 SLOAD SWAP2 MLOAD SWAP1 SWAP4 SWAP3 SWAP2 DUP5 SUB DUP1 ISZERO PUSH2 0x8FC MUL SWAP3 SWAP1 SWAP2 SWAP1 DUP2 DUP2 DUP2 DUP6 DUP9 DUP9 CALL SWAP4 POP POP POP POP ISZERO DUP1 ISZERO PUSH2 0xCE8 JUMPI RETURNDATASIZE PUSH1 0x0 DUP1 RETURNDATACOPY RETURNDATASIZE PUSH1 0x0 REVERT JUMPDEST POP PUSH2 0xCF2 CALLER PUSH2 0x86E JUMP JUMPDEST POP JUMPDEST POP PUSH1 0x8 DUP1 SLOAD PUSH1 0x1 DUP2 ADD SWAP1 SWAP2 SSTORE PUSH32 0xF3F7A9FE364FAAB93B216DA50A3214154F22A0A2B415B23A84C8169E8B636EE3 ADD DUP1 SLOAD PUSH1 0x1 PUSH1 0x1 PUSH1 0xA0 SHL SUB NOT AND CALLER SWAP1 DUP2 OR SWAP1 SWAP2 SSTORE PUSH1 0x0 SWAP1 DUP2 MSTORE PUSH1 0x9 PUSH1 0x20 MSTORE PUSH1 0x40 SWAP1 KECCAK256 CALLVALUE SWAP1 SSTORE JUMP JUMPDEST PUSH1 0x4 SLOAD DUP2 JUMP JUMPDEST DUP3 DUP1 SLOAD DUP3 DUP3 SSTORE SWAP1 PUSH1 0x0 MSTORE PUSH1 0x20 PUSH1 0x0 KECCAK256 SWAP1 DUP2 ADD SWAP3 DUP3 ISZERO PUSH2 0xDA3 JUMPI SWAP2 PUSH1 0x20 MUL DUP3 ADD JUMPDEST DUP3 DUP2 GT ISZERO PUSH2 0xDA3 JUMPI DUP3 MLOAD DUP3 SLOAD PUSH1 0x1 PUSH1 0x1 PUSH1 0xA0 SHL SUB NOT AND PUSH1 0x1 PUSH1 0x1 PUSH1 0xA0 SHL SUB SWAP1 SWAP2 AND OR DUP3 SSTORE PUSH1 0x20 SWAP1 SWAP3 ADD SWAP2 PUSH1 0x1 SWAP1 SWAP2 ADD SWAP1 PUSH2 0xD6E JUMP JUMPDEST POP PUSH2 0xDAF SWAP3 SWAP2 POP PUSH2 0xDB3 JUMP JUMPDEST POP SWAP1 JUMP JUMPDEST PUSH2 0x475 SWAP2 SWAP1 JUMPDEST DUP1 DUP3 GT ISZERO PUSH2 0xDAF JUMPI DUP1 SLOAD PUSH1 0x1 PUSH1 0x1 PUSH1 0xA0 SHL SUB NOT AND DUP2 SSTORE PUSH1 0x1 ADD PUSH2 0xDB9 JUMP INVALID 0x4F PUSH15 0x6C7920746865206F776E6572206361 PUSH15 0x2063616C6C20746869732066756E63 PUSH21 0x696F6EA2646970667358221220C1DE282E3434FC0D 0x2A GASPRICE DUP7 XOR 0x1E RETURNDATACOPY 0x4F 0xB4 ADDRESS 0xC9 COINBASE 0xE0 BALANCE 0xC6 DUP5 CALLER CALLDATACOPY 0xBA 0x2B 0x5C SWAP3 0xC4 0xB5 0xC8 PUSH5 0x736F6C6343 STOP MOD MOD STOP CALLER ",
  "sha1": "075365e76f1a5217c7439221799c436b8ac42be4",
  "source": "// SPDX-License-Identifier: MIT\n\npragma solidity 0.6.6;\n\nimport \"./GovtMock.sol\";\n\ncontract LandContract {\n    string public surveyNumber;\n    string public taluk;\n    string public district;\n    address verifier;\n    uint256 public gasReserve;\n\n    enum CONTRACT_STATE {\n        open,\n        closed\n    }\n\n    CONTRACT_STATE public ctr_state;\n\n    address payable public owner;\n    address[] public prev_owners;\n    uint256[] public prev_prices;\n    address[] public bidders;\n\n    mapping(address => uint256) bidderToWei;\n    uint256 minWei;\n\n    constructor(\n        string memory _snum,\n        string memory _taluk,\n        string memory _district,\n        address _ver,\n        uint256 _gasreserve\n    ) public {\n        taluk = _taluk;\n        surveyNumber = _snum;\n        district = _district;\n        ctr_state = CONTRACT_STATE.closed;\n        owner = payable(msg.sender);\n        verifier = _ver;\n        gasReserve = _gasreserve;\n    }\n\n    function get_current_owner() public view returns (address) {\n        return owner;\n    }\n\n    function sale(uint256 _minwei) public {\n        require(msg.sender == owner, \"Only the owner can call this function\");\n        require(\n            ctr_state == CONTRACT_STATE.closed,\n            \"Auction is already ongoing\"\n        );\n        ctr_state = CONTRACT_STATE.open;\n        minWei = _minwei;\n    }\n\n    function end_sale() public {\n        address max_bidder = find_max_bidder();\n        uint256 max_wei = bidderToWei[max_bidder];\n        if (!(max_wei >= minWei)) {\n            ctr_state = CONTRACT_STATE.closed;\n            for (uint256 i = 0; i < bidders.length; i++) {\n                address payable bidder = payable(bidders[i]);\n                uint256 amount = bidderToWei[bidders[i]];\n                bidder.transfer(amount - gasReserve);\n            }\n\n            // Delete bidders\n            for (uint256 i = 0; i < bidders.length; i++) {\n                bidderToWei[bidders[i]] = 0;\n            }\n            bidders = new address[](0);\n            ctr_state = CONTRACT_STATE.closed;\n        } else {\n            owner.transfer(max_wei - gasReserve);\n            prev_owners.push(owner);\n            owner = payable(max_bidder);\n            for (uint256 i = 0; i < bidders.length; i++) {\n                address payable bidder = payable(bidders[i]);\n                uint256 amount = bidderToWei[bidders[i]];\n                bidder.transfer(amount - gasReserve);\n            }\n\n            // Delete bidders\n            for (uint256 i = 0; i < bidders.length; i++) {\n                bidderToWei[bidders[i]] = 0;\n            }\n            bidders = new address[](0);\n            ctr_state = CONTRACT_STATE.closed;\n\n            prev_prices.push(max_wei);\n        }\n    }\n\n    function find_max_bidder() public view returns (address) {\n        require(bidders.length > 0);\n        address max_bidder = bidders[0];\n        uint256 max_wei = bidderToWei[max_bidder];\n        for (uint256 i = 0; i < bidders.length; i++) {\n            address bidder = bidders[i];\n            uint256 weiNum = bidderToWei[bidder];\n            if (weiNum > max_wei) {\n                max_bidder = bidder;\n                max_wei = weiNum;\n            }\n        }\n        return max_bidder;\n    }\n\n    function bidder_exists(address _check_val) public view returns (bool) {\n        for (uint256 i = 0; i < bidders.length; i++) {\n            if (bidders[i] == _check_val) {\n                return true;\n            }\n        }\n\n        return false;\n    }\n\n    function cancel_bid() public {\n        require(bidder_exists(msg.sender));\n        uint256 amount = bidderToWei[msg.sender];\n        bidderToWei[msg.sender] = 0;\n        payable(msg.sender).transfer(amount);\n        removeBidder(msg.sender);\n    }\n\n    function removeBidder(address bidder) public {\n        delete bidders[findIndex(bidder)];\n    }\n\n    function findIndex(address bidder) public view returns (uint256) {\n        for (uint256 i = 0; i < bidders.length; i++) {\n            if (bidders[i] == bidder) {\n                return i;\n            }\n        }\n    }\n\n    function enter() public payable {\n        GovtMock govtmock = GovtMock(verifier);\n        require(govtmock.verify_address(msg.sender));\n        require(msg.value > gasReserve);\n        if (bidder_exists(msg.sender)) {\n            uint256 amount = bidderToWei[msg.sender];\n            payable(msg.sender).transfer(amount - gasReserve);\n            removeBidder(msg.sender);\n        }\n        bidders.push(msg.sender);\n        bidderToWei[msg.sender] = msg.value;\n    }\n}\n",
  "sourcePath": "contracts/LandContract.sol",
  "type": "contract"
}